:020000040000FA
:04000000A2EF00F07B
:100008005F82D9CFD1F0DACFD2F0F3CFD3F0F4CFEB
:10001800D4F00E01D0A113EF00F015EF00F030EF8F
:1000280000F0E4EC1BF0F50E0001B06F000EB16FAC
:10003800F30EB26F000EB36FF10EB46F000EB56F12
:10004800E1C0B6F0E2C0B7F0E3C0B8F0E4C0B9F080
:100058007FEC16F00E01D091CCAD35EF00F037EF04
:1000680000F071EF00F0C7CFE5F0C8CFE6F0D9ECAB
:100078001BF00001E551F95DE651FA59D8A047EFA8
:1000880000F049EF00F06FEF00F0E5C001F0E6C0C6
:1000980002F0000E02BEFF0E036E046E010ED8ECD5
:1000A80017F001C00FF002C010F003C011F004C037
:1000B80012F0000E136E000E146E7A0E156E450EB9
:1000C800166EB2EC14F00FC0E1F010C0E2F011C0EF
:1000D800E3F012C0E4F00E01CC9DCBA176EF00F066
:1000E80078EF00F098EF00F063CF5DF064CF5EF03A
:1000F800B2EC18F05DC0E7F05EC0E8F00001E7512F
:10010800F75DF851800AD06FE851800AD059D8B00D
:1001180090EF00F092EF00F096EF00F0E7C0F7F0F4
:10012800E8C0F8F00E01CB91D4C0F4FFD3C0F3FFC0
:10013800D2C0DAFFD1C0D9FF5F9211001FEF1BF0C8
:100F000000269E783EEEE9913E13CECC3EAAAA2A58
:100F10003FD49A38B900B0B83F269E783EEEE991AA
:100F20003E13CECC3EAAAA2A3FDB27543580209A16
:100F30003ED9EA04B80060DE3E00D9C0ACF0DAC0A9
:100F4000ADF0DBC0AEF0DCC0AFF059C0ACF05AC0C1
:100F5000ADF05BC0AEF05CC0AFF0ACC0B4F0ADC003
:100F6000B5F0AEC0B6F0AFC0B7F0000E0001876FAD
:100F7000000E866FB75109E1800EB65DD8A0C3EFB1
:100F800007F0C5EF07F0E3EF07F0B4C060F0B5C0BD
:100F900061F0B6C062F0B7C063F0200ED5EF07F085
:100FA000D8906333623361336033E82ED0EF07F0BB
:100FB0006051611162116311D8B4E1EF07F0E3EF02
:100FC00007F0A1EF08F0D890B435606FB535616FC8
:100FD000B635626FB735636F60516111621163118D
:100FE000D8A4F5EF07F0F7EF07F025EF08F0000EB3
:100FF0000F6E000E106E800E116EBF0E126E59C075
:101000002CF05AC02DF05BC02EF05CC02FF059C000
:1010100028F05AC029F05BC02AF05CC02BF09DEC90
:1010200012F028C013F029C014F02AC015F02BC00C
:1010300016F0B2EC14F00FC059F010C05AF011C005
:101040005BF012C05CF00FEF0CF0B4C060F0B5C004
:1010500061F0B6C062F0B7C063F0200E35EF08F063
:10106000D8906333623361336033E82E30EF08F099
:101070006051611162116311D8B441EF08F043EF80
:1010800008F071EF08F059C055F05AC056F05BC037
:1010900057F05CC058F059C051F05AC052F05BC0D4
:1010A00053F05CC054F043EC1BF051C00FF052C041
:1010B00010F053C011F054C012F0000E136E000E69
:1010C000146E000E156E000E166EB2EC14F00FC00A
:1010D00059F010C05AF011C05BF012C05CF00FEF75
:1010E0000CF0E70E8627FF0E872359C028F05AC060
:1010F00029F05BC02AF05CC02BF0000E2C6E000EB5
:101100002D6E000E2E6E4C0E2F6E9DEC12F028C030
:1011100059F029C05AF02AC05BF02BC05CF059C0CE
:10112000ACF05AC0ADF05BC0AEF05CC0AFF0ACC08C
:10113000B4F0ADC0B5F0AEC0B6F0AFC0B7F0CEEF12
:1011400008F0800EB65D7F0EB759D8A0AAEF08F060
:10115000ACEF08F0B6EF08F059C059F05AC05AF099
:101160005BC05BF05CC05CF00FEF0CF0800EB6195A
:1011700009E13F0EB719B411B511D8A4C2EF08F0B8
:10118000C4EF08F0CEEF08F0000E596E000E5A6E54
:10119000000E5B6E000E5C6E0FEF0CF00D0E00018A
:1011A000B427FB0EB5234A0EB623000EB723810EDB
:1011B000606FFF0E616FB4C062F0B5C063F0B6C07F
:1011C00064F0B7C065F0180EEBEF08F0D890653307
:1011D000643363336233E82EE6EF08F06051622730
:1011E000615163236251862763518723FF0EB41533
:1011F000606FFF0EB515616F7F0EB615626F000E42
:10120000B715636FF30E6025B46F040E6121B56FDF
:10121000350E6221B66F3F0E6321B76FB4C0ACF0DC
:10122000B5C0ADF0B6C0AEF0B7C0AFF0ACC059F0CD
:10123000ADC05AF0AEC05BF0AFC05CF059C041F039
:101240005AC042F05BC043F05CC044F0000E456EF3
:10125000000E466E800E476EBF0E486E3DEC10F0DD
:1012600041C0B0F042C0B1F043C0B2F044C0B3F0EE
:10127000B0C00FF0B1C010F0B2C011F0B3C012F0A6
:10128000000E456E000E466E000E476E400E486E14
:10129000B0C041F0B1C042F0B2C043F0B3C044F0BE
:1012A0003DEC10F041C013F042C014F043C015F003
:1012B00044C016F0B2EC14F00FC098F010C099F0D2
:1012C00011C09AF012C09BF098C028F099C029F084
:1012D0009AC02AF09BC02BF098C02CF099C02DF03A
:1012E0009AC02EF09BC02FF09DEC12F028C09CF00D
:1012F00029C09DF02AC09EF02BC09FF09CC028F012
:101300009DC029F09EC02AF09FC02BF09CC02CF0FD
:101310009DC02DF09EC02EF09FC02FF09DEC12F0CE
:1013200028C0A0F029C0A1F02AC0A2F02BC0A3F0D1
:10133000130E456ECE0E466ECC0E476E3E0E486EB8
:10134000260E2C6E9E0E2D6E780E2E6E3E0E2F6E7D
:10135000A0C028F0A1C029F0A2C02AF0A3C02BF0A1
:101360009DEC12F028C041F029C042F02AC043F0A1
:101370002BC044F03DEC10F041C0A4F042C0A5F0F9
:1013800043C0A6F044C0A7F0A4C028F0A5C029F02F
:10139000A6C02AF0A7C02BF0A0C02CF0A1C02DF051
:1013A000A2C02EF0A3C02FF09DEC12F028C06AF06E
:1013B00029C06BF02AC06CF02BC06DF0AA0E456EF0
:1013C000AA0E466E2A0E476E3F0E486EEE0E2C6E2B
:1013D000E90E2D6E910E2E6E3E0E2F6EA0C028F0DF
:1013E000A1C029F0A2C02AF0A3C02BF09DEC12F0FE
:1013F00028C041F029C042F02AC043F02BC044F07D
:101400003DEC10F041C0A4F042C0A5F043C0A6F0EE
:1014100044C0A7F0A4C028F0A5C029F0A6C02AF0B7
:10142000A7C02BF09CC02CF09DC02DF09EC02EF0CC
:101430009FC02FF09DEC12F028C06EF029C06FF015
:101440002AC070F02BC071F06EC041F06FC042F046
:1014500070C043F071C044F06AC045F06BC046F004
:101460006CC047F06DC048F03DEC10F041C066F034
:1014700042C067F043C068F044C069F0000E2C6EB3
:10148000000E2D6E000E2E6E3F0E2F6EB0C028F097
:10149000B1C029F0B2C02AF0B3C02BF09DEC12F01D
:1014A00028C0A4F029C0A5F02AC0A6F02BC0A7F040
:1014B000A4C028F0A5C029F0A6C02AF0A7C02BF030
:1014C000B0C02CF0B1C02DF0B2C02EF0B3C02FF0E0
:1014D0009DEC12F028C094F029C095F02AC096F037
:1014E0002BC097F0B0C051F0B1C052F0B2C053F071
:1014F000B3C054F094C055F095C056F096C057F064
:1015000097C058F043EC1BF051C0A8F052C0A9F0AE
:1015100053C0AAF054C0ABF0A8C0ACF0A9C0ADF065
:10152000AAC0AEF0ABC0AFF0000E0001AC17F00ED9
:10153000AD17FF0EAE17FF0EAF17ACC0A8F0ADC0D1
:10154000A9F0AEC0AAF0AFC0ABF0A8C055F0A9C0DA
:1015500056F0AAC057F0ABC058F0B0C051F0B1C0BF
:1015600052F0B2C053F0B3C054F043EC1BF051C082
:1015700072F052C073F053C074F054C075F094C050
:1015800055F095C056F096C057F097C058F072C00D
:1015900051F073C052F074C053F075C054F043EC76
:1015A0001BF051C076F052C077F053C078F054C0B1
:1015B00079F098C02CF099C02DF09AC02EF09BC005
:1015C0002FF066C045F067C046F068C047F069C0BC
:1015D00048F094C041F095C042F096C043F097C0E7
:1015E00044F03DEC10F041C028F042C029F043C067
:1015F0002AF044C02BF09DEC12F028C090F029C0D6
:1016000091F02AC092F02BC093F076C041F077C0E1
:1016100042F078C043F079C044F090C045F091C0EA
:1016200046F092C047F093C048F03DEC10F041C046
:101630008CF042C08DF043C08EF044C08FF086C065
:1016400001F087C002F0000E02BEFF0E036E046EB2
:10165000010ED8EC17F001C088F002C089F003C079
:101660008AF004C08BF0D90E2C6EEA0E2D6E040E9B
:101670002E6EB80E2F6EA8C045F0A9C046F0AAC0C5
:1016800047F0ABC048F08CC041F08DC042F08EC036
:1016900043F08FC044F03DEC10F041C028F042C050
:1016A00029F043C02AF044C02BF09DEC12F028C072
:1016B0007AF029C07BF02AC07CF02BC07DF07AC084
:1016C00045F07BC046F07CC047F07DC048F0DB0EA3
:1016D0002C6E270E2D6E540E2E6E350E2F6E88C07A
:1016E00028F089C029F08AC02AF08BC02BF09DEC2D
:1016F00012F028C041F029C042F02AC043F02BC0AC
:1017000044F03DEC10F041C07EF042C07FF043C099
:1017100080F044C081F0000E2C6E600E2D6EDE0E47
:101720002E6E3E0E2F6E8CC028F08DC029F08EC01C
:101730002AF08FC02BF09DEC12F028C045F029C094
:1017400046F02AC047F02BC048F07EC041F07FC071
:1017500042F080C043F081C044F03DEC10F041C045
:1017600090F042C091F043C092F044C093F0000E5C
:101770002C6E600E2D6EDE0E2E6E3E0E2F6EA8C0ED
:1017800028F0A9C029F0AAC02AF0ABC02BF09DEC2C
:1017900012F028C045F029C046F02AC047F02BC0FF
:1017A00048F090C041F091C042F092C043F093C025
:1017B00044F03DEC10F041C082F042C083F043C0E1
:1017C00084F044C085F082C041F083C042F084C000
:1017D00043F085C044F0800E2C6E200E2D6E9A0EC4
:1017E0002E6E3E0E2F6E88C028F089C029F08AC068
:1017F0002AF08BC02BF09DEC12F028C045F029C0D8
:1018000046F02AC047F02BC048F03DEC10F041C034
:1018100059F042C05AF043C05BF044C05CF0120083
:10182000D5C0A4F0D6C0A5F0D7C0A6F0D8C0A7F008
:1018300059C0A4F05AC0A5F05BC0A6F05CC0A7F0E8
:10184000A4C0ACF0A5C0ADF0A6C0AEF0A7C0AFF08C
:10185000000E0001836F000E826FAF5109E1800E10
:10186000AE5DD8A036EF0CF038EF0CF056EF0CF070
:10187000ACC060F0ADC061F0AEC062F0AFC063F06C
:10188000200E48EF0CF0D89063336233613360333D
:10189000E82E43EF0CF06051611162116311D8B46E
:1018A00054EF0CF056EF0CF014EF0DF0D890AC356F
:1018B000606FAD35616FAE35626FAF35636F60518C
:1018C000611162116311D8A468EF0CF06AEF0CF09B
:1018D00098EF0CF0000E0F6E000E106E800E116E61
:1018E000BF0E126E59C02CF05AC02DF05BC02EF006
:1018F0005CC02FF059C028F05AC029F05BC02AF014
:101900005CC02BF09DEC12F028C013F029C014F03D
:101910002AC015F02BC016F0B2EC14F00FC059F02D
:1019200010C05AF011C05BF012C05CF03CEF10F038
:10193000ACC060F0ADC061F0AEC062F0AFC063F0AB
:10194000200EA8EF0CF0D89063336233613360331C
:10195000E82EA3EF0CF06051611162116311D8B44D
:10196000B4EF0CF0B6EF0CF0E4EF0CF059C055F00A
:101970005AC056F05BC057F05CC058F059C051F0E7
:101980005AC052F05BC053F05CC054F043EC1BF003
:1019900051C00FF052C010F053C011F054C012F0FB
:1019A000000E136E000E146E000E156E000E166EF5
:1019B000B2EC14F00FC059F010C05AF011C05BF037
:1019C00012C05CF03CEF10F0E70E8227FF0E83237D
:1019D00059C028F05AC029F05BC02AF05CC02BF037
:1019E000000E2C6E000E2D6E000E2E6E4C0E2F6E05
:1019F0009DEC12F028C059F029C05AF02AC05BF0C3
:101A00002BC05CF059C0A4F05AC0A5F05BC0A6F092
:101A10005CC0A7F0A4C0ACF0A5C0ADF0A6C0AEF00D
:101A2000A7C0AFF041EF0DF0800EAE5D7F0EAF5955
:101A3000D8A01DEF0DF01FEF0DF029EF0DF059C0EC
:101A400059F05AC05AF05BC05BF05CC05CF03CEFF0
:101A500010F0800EAE1909E13F0EAF19AC11AD11B7
:101A6000D8A435EF0DF037EF0DF041EF0DF0000E7B
:101A7000596E000E5A6E000E5B6E000E5C6E3CEFEF
:101A800010F00D0E0001AC27FB0EAD234A0EAE2365
:101A9000000EAF23810E606FFF0E616FACC062F06D
:101AA000ADC063F0AEC064F0AFC065F0180E5EEF7D
:101AB0000DF0D8906533643363336233E82E59EF09
:101AC0000DF0605162276151632362518227635197
:101AD0008323FF0EAC15606FFF0EAD15616F7F0E97
:101AE000AE15626F000EAF15636FF30E6025AC6F1D
:101AF000040E6121AD6F350E6221AE6F3F0E632182
:101B0000AF6FACC0A4F0ADC0A5F0AEC0A6F0AFC042
:101B1000A7F0A4C059F0A5C05AF0A6C05BF0A7C0BA
:101B20005CF059C041F05AC042F05BC043F05CC069
:101B300044F0000E456E000E466E800E476EBF0EDE
:101B4000486E3DEC10F041C0A8F042C0A9F043C07F
:101B5000AAF044C0ABF0A8C00FF0A9C010F0AAC012
:101B600011F0ABC012F0000E456E000E466E000E76
:101B7000476E400E486EA8C041F0A9C042F0AAC00E
:101B800043F0ABC044F03DEC10F041C013F042C054
:101B900014F043C015F044C016F0B2EC14F00FC0BE
:101BA00090F010C091F011C092F012C093F090C06C
:101BB00028F091C029F092C02AF093C02BF090C079
:101BC0002CF091C02DF092C02EF093C02FF09DEC20
:101BD00012F028C094F029C095F02AC096F02BC0CE
:101BE00097F094C028F095C029F096C02AF097C0CD
:101BF0002BF094C02CF095C02DF096C02EF097C01D
:101C00002FF09DEC12F028C098F029C099F02AC05E
:101C10009AF02BC09BF0130E456ECE0E466ECC0E86
:101C2000476E3E0E486E260E2C6E9E0E2D6E780E62
:101C30002E6E3E0E2F6E98C028F099C029F09AC0E3
:101C40002AF09BC02BF09DEC12F028C041F029C077
:101C500042F02AC043F02BC044F03DEC10F041C0EC
:101C60009CF042C09DF043C09EF044C09FF09CC0D9
:101C700028F09DC029F09EC02AF09FC02BF098C08C
:101C80002CF099C02DF09AC02EF09BC02FF09DEC47
:101C900012F028C06AF029C06BF02AC06CF02BC08B
:101CA0006DF0AA0E456EAA0E466E2A0E476E3F0EC6
:101CB000486EEE0E2C6EE90E2D6E910E2E6E3E0EBF
:101CC0002F6E98C028F099C029F09AC02AF09BC0C6
:101CD0002BF09DEC12F028C041F029C042F02AC040
:101CE00043F02BC044F03DEC10F041C09CF042C0EA
:101CF0009DF043C09EF044C09FF09CC028F09DC062
:101D000029F09EC02AF09FC02BF094C02CF095C003
:101D10002DF096C02EF097C02FF09DEC12F028C049
:101D20006EF029C06FF02AC070F02BC071F06EC049
:101D300041F06FC042F070C043F071C044F06AC01F
:101D400045F06BC046F06CC047F06DC048F03DEC0C
:101D500010F041C066F042C067F043C068F044C074
:101D600069F0000E2C6E000E2D6E000E2E6E3F0ED2
:101D70002F6EA8C028F0A9C029F0AAC02AF0ABC0D5
:101D80002BF09DEC12F028C09CF029C09DF02AC0D9
:101D90009EF02BC09FF09CC028F09DC029F09EC0F3
:101DA0002AF09FC02BF0A8C02CF0A9C02DF0AAC02B
:101DB0002EF0ABC02FF09DEC12F028C08CF029C0A3
:101DC0008DF02AC08EF02BC08FF0A8C051F0A9C0B2
:101DD00052F0AAC053F0ABC054F08CC055F08DC087
:101DE00056F08EC057F08FC058F043EC1BF051C036
:101DF000A0F052C0A1F053C0A2F054C0A3F0A0C004
:101E0000A4F0A1C0A5F0A2C0A6F0A3C0A7F0000E48
:101E10000001A417F00EA517FF0EA617FF0EA717B7
:101E2000A4C0A0F0A5C0A1F0A6C0A2F0A7C0A3F0D6
:101E3000A0C055F0A1C056F0A2C057F0A3C058F002
:101E4000A8C051F0A9C052F0AAC053F0ABC054F0E2
:101E500043EC1BF051C072F052C073F053C074F0E9
:101E600054C075F08CC055F08DC056F08EC057F040
:101E70008FC058F072C051F073C052F074C053F06C
:101E800075C054F043EC1BF051C076F052C077F0AF
:101E900053C078F054C079F090C02CF091C02DF070
:101EA00092C02EF093C02FF066C045F067C046F098
:101EB00068C047F069C048F08CC041F08DC042F066
:101EC0008EC043F08FC044F03DEC10F041C028F0CC
:101ED00042C029F043C02AF044C02BF09DEC12F020
:101EE00028C088F029C089F02AC08AF02BC08BF066
:101EF00076C041F077C042F078C043F079C044F03A
:101F000088C045F089C046F08AC047F08BC048F0D1
:101F10003DEC10F041C084F042C085F043C086F033
:101F200044C087F0D40E2C6E9A0E2D6E380E2E6E95
:101F3000B90E2F6EA0C045F0A1C046F0A2C047F078
:101F4000A3C048F084C041F085C042F086C043F091
:101F500087C044F03DEC10F041C028F042C029F0A9
:101F600043C02AF044C02BF09DEC12F028C07AF058
:101F700029C07BF02AC07CF02BC07DF0000E2C6EB7
:101F8000B00E2D6EB80E2E6E3F0E2F6E84C028F050
:101F900085C029F086C02AF087C02BF09DEC12F096
:101FA00028C045F029C046F02AC047F02BC048F0B1
:101FB0007AC041F07BC042F07CC043F07DC044F069
:101FC0003DEC10F041C07EF042C07FF043C080F095
:101FD00044C081F0000E2C6EB00E2D6EB80E2E6E29
:101FE0003F0E2F6EA0C028F0A1C029F0A2C02AF099
:101FF000A3C02BF09DEC12F028C045F029C046F09C
:102000002AC047F02BC048F07EC041F07FC042F0AC
:1020100080C043F081C044F03DEC10F041C088F036
:1020200042C089F043C08AF044C08BF088C041F0C0
:1020300089C042F08AC043F08BC044F082C001F0F6
:1020400083C002F0000E02BEFF0E036E046E010E8E
:10205000D8EC17F001C045F002C046F003C047F0CD
:1020600004C048F03DEC10F041C059F042C05AF0B5
:1020700043C05BF044C05CF012004450800B4D6ED6
:10208000445044244F6E43AE48EF10F04AEF10F036
:102090004BEF10F04F804F50D8B451EF10F053EF8A
:1020A00010F068EF10F04F28D8A459EF10F05BEF54
:1020B00010F063EF10F0000E416E000E426E000E45
:1020C000436E000E446E438E000E446E70EF10F0AF
:1020D000000E416E000E426E000E436E000E446E06
:1020E0004850800B4E6E4D504E18D8B47AEF10F019
:1020F0007CEF10F07DEF10F04D8C485048244E6E70
:1021000047AE85EF10F087EF10F088EF10F04E80AB
:102110004E50D8B48EEF10F090EF10F0A5EF10F005
:102120004E28D8A496EF10F098EF10F0A0EF10F022
:10213000000E456E000E466E000E476E000E486E95
:10214000478E000E486EADEF10F0000E456E000E8B
:10215000466E000E476E000E486E4F504E5CD8B073
:10216000B4EF10F0B6EF10F0DDEF10F04DACBBEFB8
:1021700010F0BDEF10F0BFEF10F0800E4D1A4FC001
:1021800050F04EC04FF050C04EF041C050F045C02E
:1021900041F050C045F042C050F046C042F050C03F
:1021A00046F043C050F047C043F050C047F044C031
:1021B00050F048C044F050C048F0000E506E4F50F0
:1021C0004EC049F04A6A495E000E4A5A4ABEF2EFD2
:1021D00010F04A5009E11A0E495CD8A0F2EF10F055
:1021E000F4EF10F02BEF11F0415042104310441067
:1021F000D8A4FDEF10F000EF11F0010E01EF11F087
:10220000000E506E000E416E000E426E000E436EC8
:10221000000E446E4EC04FF034EF11F050A013EF9B
:1022200011F015EF11F01BEF11F0D89050300109AB
:10223000506E1DEF11F0D890503241A022EF11F0F6
:1022400024EF11F025EF11F0508E44344432433224
:10225000423241324F2A4E504F5CD8A032EF11F03B
:1022600034EF11F00EEF11F04DBC39EF11F03BEFF0
:1022700011F07BEF11F04F50D8A441EF11F043EF74
:1022800011F04DEF11F0000E416E000E426E000E87
:10229000436E000E446E9CEF12F0455041264650AE
:1022A0004222475043224850442244A05AEF11F0A2
:1022B0005CEF11F008EF12F050A061EF11F063EF46
:1022C00011F069EF11F0D89050300109506E6BEFAA
:1022D00011F0D890503241A070EF11F072EF11F070
:1022E00073EF11F0508E4434443243324232413263
:1022F0004F2A08EF12F04550415C46504258475073
:1023000043584450800A496E4850800A4958D8B012
:102310008CEF11F08EEF11F0B9EF11F04150455CE8
:10232000496E425046584A6E435047584B6E44508F
:1023300048584C6EFF0E4924416EFF0E4A20426EF3
:10234000FF0E4B20436EFF0E4C20446E800E4D1A44
:10235000506C5050D8A4AFEF11F0B1EF11F0C1EFB5
:1023600011F0010E4126000E422243224422C1EF09
:1023700011F04550415E4650425A4750435A48502A
:10238000445A4150421043104410D8A4CAEF11F0EF
:10239000CCEF11F001EF12F05050D8A4D2EF11F0B1
:1023A000D4EF11F001EF12F0000E416E000E426EFC
:1023B000000E436E000E446E9CEF12F0D890413632
:1023C00042364336443650AEE8EF11F0EAEF11F0F2
:1023D000EBEF11F0418050A0F0EF11F0F2EF11F0AF
:1023E000F6EF11F0D8805036F8EF11F0D890503653
:1023F0004F50D8B4FEEF11F000EF12F001EF12F0E1
:102400004F0643AE06EF12F008EF12F0DEEF11F0C8
:10241000000E4E6E50AE0FEF12F011EF12F029EFDA
:1024200012F050C049F07F0E4916D8B41AEF12F0DE
:102430001CEF12F020EF12F0010E4E6E29EF12F099
:1024400041A025EF12F027EF12F029EF12F01CEF58
:1024500012F04E50D8B42FEF12F031EF12F05CEFC3
:1024600012F0010E4126000E42224322442244A0D3
:102470003CEF12F03EEF12F05CEF12F041C049F079
:1024800042C04AF043C04BF044C04CF04C344C3294
:102490004B324A32493249C041F04AC042F04BC047
:1024A00043F04CC044F04F28D8B459EF12F05BEF22
:1024B00012F05CEF12F04F2A4F28D8B462EF12F0FE
:1024C00064EF12F06CEF12F04F50D8A46AEF12F0E4
:1024D0006CEF12F07EEF12F0000E416E000E426EB5
:1024E000000E436E000E446E4F50D8A47AEF12F0E7
:1024F0007CEF12F07EEF12F0000E4D6E4FA083EFD6
:1025000012F085EF12F088EF12F0438E89EF12F08F
:10251000439ED8904F30446E4DAE91EF12F093EF42
:1025200012F094EF12F0448E41C041F042C042F0EC
:1025300043C043F044C044F012002B50800B346E73
:102540002B502B243A6E2AAEA8EF12F0AAEF12F00D
:10255000ABEF12F03A803A50D8B4B1EF12F0B3EFCB
:1025600012F0C6EF12F03A28D8A4B9EF12F0BBEF80
:1025700012F0C3EF12F0000E286E000E296E000E4E
:102580002A6E000E2B6E2A8ECEEF12F0000E286EF1
:10259000000E296E000E2A6E000E2B6E2F50800B3F
:1025A000341A2F502F24396E2EAED9EF12F0DBEFF4
:1025B00012F0DCEF12F039803950D8B4E2EF12F0AB
:1025C000E4EF12F0F7EF12F03928D8A4EAEF12F096
:1025D000ECEF12F0F4EF12F0000E2C6E000E2D6EE8
:1025E000000E2E6E000E2F6E2E8EFFEF12F0000EDC
:1025F0002C6E000E2D6E000E2E6E000E2F6E3950BA
:10260000D8B405EF13F007EF13F00FEF13F03A50C3
:10261000D8A40DEF13F00FEF13F019EF13F0000E25
:10262000286E000E296E000E2A6E000E2B6EB1EF82
:1026300014F02E502802F3CF3FF0F4CF40F03F507B
:10264000356E366A376A386A40503B6E3C6A3D6A7E
:102650003E6A2D502902F3CF3FF0F4CF40F03F50B7
:102660003526000E36223722382240503B26000EF7
:102670003C223D223E222C502A02F3CF3FF0F4CFE1
:1026800040F03F503526000E362237223822405087
:102690003B26000E3C223D223E2237C038F036C099
:1026A00037F035C036F0356A2C502902F3CF3FF0B1
:1026B000F4CF40F03F50352640503622000E3722EE
:1026C000000E38222D502802F3CF3FF0F4CF40F017
:1026D0003F50352640503622000E3722000E382259
:1026E00037C038F036C037F035C036F0356A2C5078
:1026F0002802F3CF3FF0F4CF40F03F503526405052
:102700003622000E3722000E38222E502902F3CF37
:102710003FF0F4CF40F03F503B2640503C22000EAB
:102720003D22000E3E222D502A02F3CF3FF0F4CF7F
:1027300040F03F503B2640503C22000E3D22000E10
:102740003E222E502A02F3CF3FF0F4CF40F03F500C
:10275000306E4050316E326A336A32C033F031C06D
:1027600032F030C031F0306A30503B2631503C22DC
:1027700032503D2233503E2235C030F036C031F069
:1027800037C032F038C033F0190ECCEF13F0D890C8
:102790003332323231323032E82EC7EF13F030505C
:1027A0003B2631503C2232503D2233503E2237C02E
:1027B00038F036C037F035C036F0356A39503AC097
:1027C00030F0316A3026000E3122820E30243F6E06
:1027D000FF0E3120406E02EF14F0D8903B363C36AD
:1027E0003D363E3638AEF7EF13F0F9EF13F0FAEF5F
:1027F00013F03B80D89035363636373638363F06BC
:10280000D8A040063DAE07EF14F009EF14F0EDEF4D
:1028100013F0000E396E38AE10EF14F012EF14F012
:1028200036EF14F0FF0E3514306EFF0E3614316E95
:10283000FF0E3714326E7F0E3814336E3050311065
:1028400032103310D8B427EF14F029EF14F02DEF25
:1028500014F0010E396E36EF14F03BA032EF14F095
:1028600034EF14F036EF14F029EF14F03950D8B4E7
:102870003CEF14F03EEF14F062EF14F0010E3B2633
:10288000000E3C223D223E223EA049EF14F04BEFC9
:1028900014F062EF14F03BC030F03CC031F03DC0AA
:1028A00032F03EC033F033343332323231323032F0
:1028B00030C03BF031C03CF032C03DF033C03EF0A0
:1028C0003F4A402A40BE6DEF14F0405008E13F28D7
:1028D000D8A06DEF14F06FEF14F079EF14F0000E44
:1028E0003B6E000E3C6E800E3D6E7F0E3E6EA7EF7F
:1028F00014F040BE86EF14F0405006E13F04D8B01B
:1029000084EF14F086EF14F092EF14F0000E3B6E9B
:10291000000E3C6E000E3D6E000E3E6E000E346EDC
:10292000A7EF14F03FC03AF0FF0E3B16FF0E3C1627
:102930007F0E3D16000E3E163AA0A1EF14F0A3EF55
:1029400014F0A4EF14F03D8ED8903A303E6E34501F
:102950003E123BC028F03CC029F03DC02AF03EC0EA
:102960002BF012001250800B1F6E12501224266E94
:1029700011AEBDEF14F0BFEF14F0C0EF14F02680DD
:102980002650D8B4C6EF14F0C8EF14F0DDEF14F001
:102990002628D8A4CEEF14F0D0EF14F0D8EF14F01E
:1029A000000E0F6E000E106E000E116E000E126EF5
:1029B000118E000E126EE5EF14F0000E0F6E000E79
:1029C000106E000E116E000E126E1650800B1F1A44
:1029D00016501624276E15AEF0EF14F0F2EF14F037
:1029E000F3EF14F027802750D8B4F9EF14F0FBEF81
:1029F00014F010EF15F02728D8A401EF15F003EF1D
:102A000015F00BEF15F0000E136E000E146E000E95
:102A1000156E000E166E158E000E166E18EF15F060
:102A2000000E136E000E146E000E156E000E166E64
:102A30001350141015101610D8A421EF15F023EF21
:102A400015F03BEF15F0000E0F6E000E106E000E2D
:102A5000116E000E126E800E11127F0E12121F5098
:102A600012120FC00FF010C010F011C011F012C000
:102A700012F07EEF16F02650D8A441EF15F043EF88
:102A800015F04DEF15F0000E0F6E000E106E000EDB
:102A9000116E000E126E7EEF16F0275026C017F052
:102AA000186A175E000E185A7F0E1724206E000E4B
:102AB0001820216E0FC01BF010C01CF011C01DF0BB
:102AC00012C01EF0000E0F6E000E106E000E116E82
:102AD000000E126E000E226E000E236E000E246E8B
:102AE000000E256E000E276EAEEF15F02750D8B4FD
:102AF0007CEF15F07EEF15F095EF15F0D8901B36B2
:102B00001C361D361E36D8900F361036113612364A
:102B100025AE8DEF15F08FEF15F090EF15F00F80CB
:102B2000D890223623362436253613501B5C145099
:102B30001C5815501D5816501E58D8A0A2EF15F05D
:102B4000A4EF15F0ADEF15F0258C13501B5E14505B
:102B50001C5A15501D5A16501E5A272A190E276442
:102B6000B4EF15F0B6EF15F076EF15F01B501C1012
:102B70001D101E10D8B4BFEF15F0C1EF15F0D9EF3E
:102B800015F02280D9EF15F0D8900F361036113697
:102B9000123625AECEEF15F0D0EF15F0D1EF15F0CF
:102BA0000F80D89022362336243625362006D8A02A
:102BB000210611AEDEEF15F0E0EF15F0C4EF15F0D1
:102BC000000E276E25AEE7EF15F0E9EF15F00DEFDB
:102BD00016F0FF0E2214176EFF0E2314186EFF0E50
:102BE0002414196E7F0E25141A6E17501810191020
:102BF0001A10D8B4FEEF15F000EF16F004EF16F03F
:102C0000010E276E0DEF16F00FA009EF16F00BEF77
:102C100016F00DEF16F000EF16F02750D8B413EFB2
:102C200016F015EF16F039EF16F0010E0F26000E14
:102C300010221122122212A020EF16F022EF16F01D
:102C400039EF16F00FC017F010C018F011C019F0CE
:102C500012C01AF01A341A3219321832173217C049
:102C60000FF018C010F019C011F01AC012F0204A6D
:102C7000212A21BE44EF16F0215008E12028D8A0D7
:102C800044EF16F046EF16F051EF16F0000E216EED
:102C90002068000E0F6E000E106E000E116E000EFA
:102CA000126E21BE5EEF16F0215006E12004D8B06E
:102CB0005CEF16F05EEF16F06CEF16F0000E216E72
:102CC000000E206E000E0F6E000E106E000E116EC4
:102CD000000E126E000E1F6E20C026F026A073EFAD
:102CE00016F075EF16F078EF16F0118E79EF16F0FA
:102CF000119ED8902630126E2FEF15F01200000EA4
:102D00000001CC6F000ECD6F000ECE6F000ECF6FA6
:102D1000000EC76F000EC66F000ECB6F000ECA6F9D
:102D2000000EC96F000EC86F000E0F6E000E106E01
:102D30007A0E116E440E126EB6C013F0B7C014F0C6
:102D4000B8C015F0B9C016F0B2EC14F00FC0C2F064
:102D500010C0C3F011C0C4F012C0C5F0000E136E55
:102D6000000E146EDC0E156E430E166EC2C00FF010
:102D7000C3C010F0C4C011F0C5C012F0B2EC14F022
:102D80000FC0BAF010C0BBF011C0BCF012C0BDF053
:102D9000BAC059F0BBC05AF0BCC05BF0BDC05CF01B
:102DA00010EC0CF059C0BEF05AC0BFF05BC0C0F0D0
:102DB0005CC0C1F0000E2C6E000E2D6E400E2E6E0B
:102DC000410E2F6EBEC028F0BFC029F0C0C02AF04F
:102DD000C1C02BF09DEC12F028C041F029C042F098
:102DE0002AC043F02BC044F0000E456E000E466E24
:102DF0008A0E476E420E486E3DEC10F041C0CCF09A
:102E000042C0CDF043C0CEF044C0CFF0CCC051F0B2
:102E1000CDC052F0CEC053F0CFC054F05CEC19F0EE
:102E200051C0C8F052C0C9F0CCC051F0CDC052F072
:102E3000CEC053F0CFC054F0C8C001F0C9C002F0FA
:102E4000000E02BEFF0E036E046E010ED8EC17F0EA
:102E500001C055F002C056F003C057F004C058F04E
:102E600043EC1BF051C0CCF052C0CDF053C0CEF0BB
:102E700054C0CFF0000E016E000E026E000E036E05
:102E80003F0E046ECCC005F0CDC006F0CEC007F0FA
:102E9000CFC008F0DFEC19F0D8B051EF17F053EFC6
:102EA00017F072EF17F0CCC051F0CDC052F0CEC089
:102EB00053F0CFC054F0000E556E000E566E000E4B
:102EC000576E3F0E586E43EC1BF051C0CCF052C011
:102ED000CDF053C0CEF054C0CFF00001C84BC92B89
:102EE0008CEF17F0CCC041F0CDC042F0CEC043F023
:102EF000CFC044F0000E456E000E466E000E476EC9
:102F00003F0E486E3DEC10F041C0CCF042C0CDF019
:102F100043C0CEF044C0CFF0000E2C6E000E2D6EDC
:102F2000800E2E6E460E2F6ECCC028F0CDC029F03C
:102F3000CEC02AF0CFC02BF09DEC12F028C051F08B
:102F400029C052F02AC053F02BC054F05CEC19F0A9
:102F500051C0CAF052C0CBF07F0E0001CA15C66F37
:102F6000C76BCAC001F0CBC002F0000E046E800E29
:102F7000036E61EC1AF001C0CAF002C0CBF0B0C021
:102F8000D9FFB1C0DAFFC8C0DEFFC9C0DDFFB2C0E3
:102F9000D9FFB3C0DAFFCAC0DEFFCBC0DDFFB4C0CB
:102FA000D9FFB5C0DAFFC6C0DEFFC7C0DDFF120023
:102FB000096E0950D8B4DFEF17F0E1EF17F003EF17
:102FC00018F004BEE8EF17F0E6EF17F003EF18F083
:102FD00001C005F002C006F003C007F004C008F00D
:102FE000051E061E071E081E052A000E06220722C1
:102FF000082205C00BF006C00CF007C00DF008C099
:103000000EF00BEF18F001C00BF002C00CF003C083
:103010000DF004C00EF00150021003100410D8A4EB
:1030200014EF18F016EF18F020EF18F0000E016EF4
:10303000000E026E000E036E000E046EB1EF18F06B
:10304000960E0A6E2AEF18F00A2AD8900E320D3228
:103050000C320B32000E0B14056E000E0C14066EB3
:10306000000E0D14076EFE0E0E14086E05500610AD
:1030700007100810D8A43FEF18F041EF18F024EF24
:1030800018F04FEF18F00A2A010E0B26000E0C2242
:103090000D220E22D8900E320D320C320B32000E61
:1030A0000B14056E000E0C14066E000E0D14076E48
:1030B000FF0E0E14086E0550061007100810D8A455
:1030C00064EF18F066EF18F043EF18F06EEF18F0A9
:1030D0000A06D8900B360C360D360E360DBE73EF41
:1030E00018F075EF18F07DEF18F0020E0A607BEF14
:1030F00018F07DEF18F068EF18F00AB082EF18F0C2
:1031000084EF18F085EF18F00D9ED8900A320AC0AF
:1031100005F0066A076A086A05C008F0076A066AC9
:10312000056A05500B1206500C1207500D1208507C
:103130000E120950D8B49FEF18F0A1EF18F0A9EFC4
:1031400018F004BEA8EF18F0A6EF18F0A9EF18F0D9
:103150000E8E0BC001F00CC002F00DC003F00EC0CB
:1031600004F01200010E5D240001B86F000E5E2015
:10317000B96FB8C001F0B9C002F0000E02BEFF0E78
:10318000036E046E010ED8EC17F001C00FF002C000
:1031900010F003C011F004C012F0000E136E000E08
:1031A000146E800E156E440E166EB2EC14F00FC045
:1031B000C4F010C0C5F011C0C6F012C0C7F0490E6F
:1031C000136E9D0E146E800E156E3E0E166EC4C0EC
:1031D0000FF0C5C010F0C6C011F0C7C012F0B2ECBD
:1031E00014F00FC0BAF010C0BBF011C0BCF012C098
:1031F000BDF0BAC059F0BBC05AF0BCC05BF0BDC056
:103200005CF09DEC07F059C0BEF05AC0BFF05BC047
:10321000C0F05CC0C1F0BEC028F0BFC029F0C0C083
:103220002AF0C1C02BF0000E2C6E000E2D6EA00EE9
:103230002E6E410E2F6E9DEC12F028C0C4F029C0F6
:10324000C5F02AC0C6F02BC0C7F0660E2C6E660E05
:103250002D6E060E2E6E400E2F6E000E456E000E69
:10326000466E400E476E420E486EC4C041F0C5C067
:1032700042F0C6C043F0C7C044F03DEC10F041C07E
:1032800028F042C029F043C02AF044C02BF09DEC46
:1032900012F028C051F029C052F02AC053F02BC0C0
:1032A00054F05CEC19F051C0C2F052C0C3F0C2C07F
:1032B0005DF0C3C05EF01200533454345A6E5A505D
:1032C000D8A465EF19F067EF19F071EF19F0000E4F
:1032D000516E000E526E000E536E000E546EDEEFF5
:1032E00019F051C055F052C056F053C057F054C0B9
:1032F00058F0200E81EF19F0D890583257325632DC
:103300005532E82E7CEF19F05550596E538EFF0E52
:103310005116FF0E5216FF0E5316000E5416960E3F
:103320005A5E5ABE98EF19F096EF19F0AEEF19F009
:103330005A50800A970FD8B0A0EF19F0A2EF19F0F9
:10334000A4EF19F067EF19F0D8905432533252328B
:1033500051325A3EA4EF19F0C6EF19F01F0E5A640D
:10336000B4EF19F0B6EF19F0BEEF19F067EF19F0EE
:10337000D89051365236533654365A065A50D8A43D
:10338000C4EF19F0C6EF19F0B8EF19F05950D8B4DE
:10339000CCEF19F0CEEF19F0D6EF19F0541E531EF2
:1033A000521E516C000E52225322542251C051F031
:1033B00052C052F053C053F054C054F01200000EEB
:1033C0000114096E000E02140A6E800E03140B6EB7
:1033D0007F0E04140C6E09500A100B100C10D8A4A8
:1033E000F4EF19F0F6EF19F0FEEF19F0000E016E90
:1033F000000E026E000E036E000E046E000E051429
:10340000096E000E06140A6E800E07140B6E7F0EF6
:1034100008140C6E09500A100B100C10D8A413EFEE
:103420001AF015EF1AF01DEF1AF0000E056E000EDF
:10343000066E000E076E000E086E04AE22EF1AF044
:1034400024EF1AF02DEF1AF0016C021ED8B0022AF8
:10345000031ED8B0032A800E045608AE32EF1AF0CD
:1034600034EF1AF03DEF1AF0056C061ED8B0062AAC
:10347000071ED8B0072A800E0856000E011A000E4B
:10348000021A000E031A800E041A000E051A000E0E
:10349000061A000E071A800E081A0550015C065025
:1034A00002580750035808500458D8B05AEF1AF081
:1034B0005CEF1AF05FEF1AF0D89060EF1AF0D88046
:1034C0001200000E066E04BE6AEF1AF068EF1AF0E2
:1034D00070EF1AF0036C041ED8B0042A010E066EB9
:1034E00002BE77EF1AF075EF1AF07DEF1AF0016C5B
:1034F000021ED8B0022A010E061A000E086E000E37
:10350000076E03500410D8B488EF1AF08AEF1AF04F
:10351000B2EF1AF0010E056E92EF1AF0D890033652
:103520000436052A04AE97EF1AF099EF1AF08EEFE1
:103530001AF0D890073608360350015C0450025840
:10354000D8A0A5EF1AF0A7EF1AF0ACEF1AF00350CD
:10355000015E0450025A0780D89004320332052ECF
:1035600099EF1AF00650D8B4B8EF1AF0BAEF1AF083
:10357000BEEF1AF0076C081ED8B0082A07C001F089
:1035800008C002F01200000E836E000E846E000E62
:10359000856E839088800F011181849089808A9C38
:1035A000F29EF29C02EC1CF0CCEC1BF0BFEC1BF08A
:1035B000EFEC1BF0A4EC1BF0B2EC1BF00AEC1CF0DF
:1035C000F28EF28CF9EC1BF0010106510001F519A5
:1035D0000BE1010107510001F619D8B4F2EF1AF01E
:1035E000F4EF1AF0E2EF1AF0000E0101016F000E85
:1035F000006F06C102F107C103F1000E056F000E56
:10360000046F85EC1BF0000E0101016F000E006FCE
:10361000F5C002F1F6C003F1000E056F600E046FF5
:1036200066EC1BF0F5C006F1F6C007F1000E0001D4
:10363000F86F000EF76FE2EF1AF0A2EF00F0200E25
:10364000F66E380EF76E000EF86E00EEF7F010EE24
:1036500004F00900F5CFEEFFE550E150FAE1010179
:10366000096B086B076B066B00EED5F0220EEE6A55
:10367000E806FDE15F905F92000EF86E0F0EF76EA8
:103680000001C3EF1AF0000E551A000E561A000E74
:10369000571A800E581A51C041F052C042F053C020
:1036A00043F054C044F055C045F056C046F057C0F2
:1036B00047F058C048F03DEC10F041C051F042C016
:1036C00052F043C053F044C054F0120001010051C5
:1036D000900F9A6E0E01CDA970EF1BF072EF1BF0E8
:1036E0006AEF1BF002C19AFFCDA979EF1BF07BEFC7
:1036F0001BF074EF1BF004C19AFFCDA982EF1BF001
:1037000084EF1BF07DEF1BF0120001010051800FD0
:103710009A6E0E01CDA98FEF1BF091EF1BF089EF90
:103720001BF002C19AFFCDA998EF1BF09AEF1BF096
:1037300093EF1BF004C19AFFCDA9A1EF1BF0A3EFFB
:103740001BF09CEF1BF0120060846088000E0F01DC
:103750005F6FFC0E581758990E01CB91C391F28AF6
:10376000608E12001F0E9B6E9E949F96090E0E0196
:10377000FD6F9E989D8E9E8A9E9CC5991200CA9E42
:10378000C982CC50F00B0109CC6EC984C950CF0B53
:103790002009C96EC9801200D09ECF82D250F00B92
:1037A0000109D26ECF84CF50CF0B2009CF6ECF80CE
:1037B0001200C990000EC86E000EC76EC950CF0B24
:1037C0002009C96EC9801200CF90000ECE6E000E87
:1037D000CD6ECF50CF0B2009CF6ECF801200AC50F2
:1037E000F00B0909AC6EAC8E9C0EAB6E400EAA6E4F
:1037F0001200608060B0FFEF1BF001EF1CF0FAEFE9
:103800001BF012000E01CC9DC48D0F01328332914A
:1038100032991200F28A0E01BC9DBB91BC8112004C
:04382000600060EAFA
:020000040020DA
:10000000FF0FFF0FFF0FFF0FFF0FFF0FFF0FFF0F80
:020000040030CA
:0C0000008CFFFFFB9FFFFFDFFFFFFFFFF7
:00000001FF
